{
  "_format": "hh-sol-artifact-1",
  "contractName": "RWallet",
  "sourceName": "contracts/wallet/RWallet.sol",
  "abi": [
    {
      "inputs": [
        {
          "internalType": "contract IEntryPoint",
          "name": "anEntryPoint",
          "type": "address"
        }
      ],
      "stateMutability": "nonpayable",
      "type": "constructor"
    },
    {
      "anonymous": false,
      "inputs": [
        {
          "indexed": false,
          "internalType": "address",
          "name": "previousAdmin",
          "type": "address"
        },
        {
          "indexed": false,
          "internalType": "address",
          "name": "newAdmin",
          "type": "address"
        }
      ],
      "name": "AdminChanged",
      "type": "event"
    },
    {
      "anonymous": false,
      "inputs": [
        {
          "indexed": true,
          "internalType": "address",
          "name": "beacon",
          "type": "address"
        }
      ],
      "name": "BeaconUpgraded",
      "type": "event"
    },
    {
      "anonymous": false,
      "inputs": [
        {
          "indexed": false,
          "internalType": "uint8",
          "name": "version",
          "type": "uint8"
        }
      ],
      "name": "Initialized",
      "type": "event"
    },
    {
      "anonymous": false,
      "inputs": [
        {
          "indexed": true,
          "internalType": "contract IEntryPoint",
          "name": "entryPoint",
          "type": "address"
        },
        {
          "indexed": true,
          "internalType": "address",
          "name": "owner",
          "type": "address"
        }
      ],
      "name": "SimpleAccountInitialized",
      "type": "event"
    },
    {
      "anonymous": false,
      "inputs": [
        {
          "indexed": true,
          "internalType": "address",
          "name": "implementation",
          "type": "address"
        }
      ],
      "name": "Upgraded",
      "type": "event"
    },
    {
      "inputs": [],
      "name": "addDeposit",
      "outputs": [],
      "stateMutability": "payable",
      "type": "function"
    },
    {
      "inputs": [],
      "name": "entryPoint",
      "outputs": [
        {
          "internalType": "contract IEntryPoint",
          "name": "",
          "type": "address"
        }
      ],
      "stateMutability": "view",
      "type": "function"
    },
    {
      "inputs": [
        {
          "internalType": "address",
          "name": "dest",
          "type": "address"
        },
        {
          "internalType": "uint256",
          "name": "value",
          "type": "uint256"
        },
        {
          "internalType": "bytes",
          "name": "func",
          "type": "bytes"
        }
      ],
      "name": "execute",
      "outputs": [],
      "stateMutability": "nonpayable",
      "type": "function"
    },
    {
      "inputs": [
        {
          "internalType": "address[]",
          "name": "dest",
          "type": "address[]"
        },
        {
          "internalType": "bytes[]",
          "name": "func",
          "type": "bytes[]"
        }
      ],
      "name": "executeBatch",
      "outputs": [],
      "stateMutability": "nonpayable",
      "type": "function"
    },
    {
      "inputs": [],
      "name": "getDeposit",
      "outputs": [
        {
          "internalType": "uint256",
          "name": "",
          "type": "uint256"
        }
      ],
      "stateMutability": "view",
      "type": "function"
    },
    {
      "inputs": [],
      "name": "getLoans",
      "outputs": [
        {
          "components": [
            {
              "internalType": "address",
              "name": "contract_",
              "type": "address"
            },
            {
              "internalType": "uint256",
              "name": "id",
              "type": "uint256"
            },
            {
              "internalType": "address",
              "name": "lender",
              "type": "address"
            },
            {
              "internalType": "bool",
              "name": "borrowed",
              "type": "bool"
            },
            {
              "internalType": "uint256",
              "name": "startTime",
              "type": "uint256"
            },
            {
              "internalType": "uint256",
              "name": "endTime",
              "type": "uint256"
            }
          ],
          "internalType": "struct RWallet.NFT[]",
          "name": "",
          "type": "tuple[]"
        }
      ],
      "stateMutability": "view",
      "type": "function"
    },
    {
      "inputs": [
        {
          "internalType": "address",
          "name": "contract_",
          "type": "address"
        }
      ],
      "name": "getLoansByContract",
      "outputs": [
        {
          "components": [
            {
              "internalType": "address",
              "name": "contract_",
              "type": "address"
            },
            {
              "internalType": "uint256",
              "name": "id",
              "type": "uint256"
            },
            {
              "internalType": "address",
              "name": "lender",
              "type": "address"
            },
            {
              "internalType": "bool",
              "name": "borrowed",
              "type": "bool"
            },
            {
              "internalType": "uint256",
              "name": "startTime",
              "type": "uint256"
            },
            {
              "internalType": "uint256",
              "name": "endTime",
              "type": "uint256"
            }
          ],
          "internalType": "struct RWallet.NFT[]",
          "name": "",
          "type": "tuple[]"
        }
      ],
      "stateMutability": "view",
      "type": "function"
    },
    {
      "inputs": [],
      "name": "getNonce",
      "outputs": [
        {
          "internalType": "uint256",
          "name": "",
          "type": "uint256"
        }
      ],
      "stateMutability": "view",
      "type": "function"
    },
    {
      "inputs": [
        {
          "internalType": "address",
          "name": "contract_",
          "type": "address"
        }
      ],
      "name": "getOperatorCount",
      "outputs": [
        {
          "internalType": "uint256",
          "name": "",
          "type": "uint256"
        }
      ],
      "stateMutability": "view",
      "type": "function"
    },
    {
      "inputs": [
        {
          "internalType": "address",
          "name": "anOwner",
          "type": "address"
        }
      ],
      "name": "initialize",
      "outputs": [],
      "stateMutability": "nonpayable",
      "type": "function"
    },
    {
      "inputs": [
        {
          "internalType": "address",
          "name": "",
          "type": "address"
        },
        {
          "internalType": "address",
          "name": "",
          "type": "address"
        },
        {
          "internalType": "uint256[]",
          "name": "",
          "type": "uint256[]"
        },
        {
          "internalType": "uint256[]",
          "name": "",
          "type": "uint256[]"
        },
        {
          "internalType": "bytes",
          "name": "",
          "type": "bytes"
        }
      ],
      "name": "onERC1155BatchReceived",
      "outputs": [
        {
          "internalType": "bytes4",
          "name": "",
          "type": "bytes4"
        }
      ],
      "stateMutability": "pure",
      "type": "function"
    },
    {
      "inputs": [
        {
          "internalType": "address",
          "name": "",
          "type": "address"
        },
        {
          "internalType": "address",
          "name": "",
          "type": "address"
        },
        {
          "internalType": "uint256",
          "name": "",
          "type": "uint256"
        },
        {
          "internalType": "uint256",
          "name": "",
          "type": "uint256"
        },
        {
          "internalType": "bytes",
          "name": "",
          "type": "bytes"
        }
      ],
      "name": "onERC1155Received",
      "outputs": [
        {
          "internalType": "bytes4",
          "name": "",
          "type": "bytes4"
        }
      ],
      "stateMutability": "pure",
      "type": "function"
    },
    {
      "inputs": [
        {
          "internalType": "address",
          "name": "",
          "type": "address"
        },
        {
          "internalType": "address",
          "name": "",
          "type": "address"
        },
        {
          "internalType": "uint256",
          "name": "",
          "type": "uint256"
        },
        {
          "internalType": "bytes",
          "name": "",
          "type": "bytes"
        }
      ],
      "name": "onERC721Received",
      "outputs": [
        {
          "internalType": "bytes4",
          "name": "",
          "type": "bytes4"
        }
      ],
      "stateMutability": "pure",
      "type": "function"
    },
    {
      "inputs": [],
      "name": "owner",
      "outputs": [
        {
          "internalType": "address",
          "name": "",
          "type": "address"
        }
      ],
      "stateMutability": "view",
      "type": "function"
    },
    {
      "inputs": [],
      "name": "proxiableUUID",
      "outputs": [
        {
          "internalType": "bytes32",
          "name": "",
          "type": "bytes32"
        }
      ],
      "stateMutability": "view",
      "type": "function"
    },
    {
      "inputs": [
        {
          "internalType": "address",
          "name": "contract_",
          "type": "address"
        },
        {
          "internalType": "uint256",
          "name": "index",
          "type": "uint256"
        }
      ],
      "name": "pullAsset",
      "outputs": [],
      "stateMutability": "nonpayable",
      "type": "function"
    },
    {
      "inputs": [
        {
          "internalType": "address",
          "name": "contract_",
          "type": "address"
        },
        {
          "internalType": "uint256",
          "name": "index",
          "type": "uint256"
        }
      ],
      "name": "releaseSingleAsset",
      "outputs": [],
      "stateMutability": "nonpayable",
      "type": "function"
    },
    {
      "inputs": [
        {
          "internalType": "bytes4",
          "name": "interfaceId",
          "type": "bytes4"
        }
      ],
      "name": "supportsInterface",
      "outputs": [
        {
          "internalType": "bool",
          "name": "",
          "type": "bool"
        }
      ],
      "stateMutability": "view",
      "type": "function"
    },
    {
      "inputs": [
        {
          "internalType": "address",
          "name": "",
          "type": "address"
        },
        {
          "internalType": "address",
          "name": "",
          "type": "address"
        },
        {
          "internalType": "address",
          "name": "",
          "type": "address"
        },
        {
          "internalType": "uint256",
          "name": "",
          "type": "uint256"
        },
        {
          "internalType": "bytes",
          "name": "",
          "type": "bytes"
        },
        {
          "internalType": "bytes",
          "name": "",
          "type": "bytes"
        }
      ],
      "name": "tokensReceived",
      "outputs": [],
      "stateMutability": "pure",
      "type": "function"
    },
    {
      "inputs": [
        {
          "internalType": "address",
          "name": "newImplementation",
          "type": "address"
        }
      ],
      "name": "upgradeTo",
      "outputs": [],
      "stateMutability": "nonpayable",
      "type": "function"
    },
    {
      "inputs": [
        {
          "internalType": "address",
          "name": "newImplementation",
          "type": "address"
        },
        {
          "internalType": "bytes",
          "name": "data",
          "type": "bytes"
        }
      ],
      "name": "upgradeToAndCall",
      "outputs": [],
      "stateMutability": "payable",
      "type": "function"
    },
    {
      "inputs": [
        {
          "internalType": "address",
          "name": "_contract",
          "type": "address"
        },
        {
          "internalType": "uint256",
          "name": "id",
          "type": "uint256"
        },
        {
          "internalType": "address",
          "name": "owner_",
          "type": "address"
        },
        {
          "internalType": "uint256",
          "name": "duration",
          "type": "uint256"
        }
      ],
      "name": "uponNFTLoan",
      "outputs": [],
      "stateMutability": "nonpayable",
      "type": "function"
    },
    {
      "inputs": [
        {
          "components": [
            {
              "internalType": "address",
              "name": "sender",
              "type": "address"
            },
            {
              "internalType": "uint256",
              "name": "nonce",
              "type": "uint256"
            },
            {
              "internalType": "bytes",
              "name": "initCode",
              "type": "bytes"
            },
            {
              "internalType": "bytes",
              "name": "callData",
              "type": "bytes"
            },
            {
              "internalType": "uint256",
              "name": "callGasLimit",
              "type": "uint256"
            },
            {
              "internalType": "uint256",
              "name": "verificationGasLimit",
              "type": "uint256"
            },
            {
              "internalType": "uint256",
              "name": "preVerificationGas",
              "type": "uint256"
            },
            {
              "internalType": "uint256",
              "name": "maxFeePerGas",
              "type": "uint256"
            },
            {
              "internalType": "uint256",
              "name": "maxPriorityFeePerGas",
              "type": "uint256"
            },
            {
              "internalType": "bytes",
              "name": "paymasterAndData",
              "type": "bytes"
            },
            {
              "internalType": "bytes",
              "name": "signature",
              "type": "bytes"
            }
          ],
          "internalType": "struct UserOperation",
          "name": "userOp",
          "type": "tuple"
        },
        {
          "internalType": "bytes32",
          "name": "userOpHash",
          "type": "bytes32"
        },
        {
          "internalType": "uint256",
          "name": "missingAccountFunds",
          "type": "uint256"
        }
      ],
      "name": "validateUserOp",
      "outputs": [
        {
          "internalType": "uint256",
          "name": "validationData",
          "type": "uint256"
        }
      ],
      "stateMutability": "nonpayable",
      "type": "function"
    },
    {
      "inputs": [
        {
          "internalType": "address payable",
          "name": "withdrawAddress",
          "type": "address"
        },
        {
          "internalType": "uint256",
          "name": "amount",
          "type": "uint256"
        }
      ],
      "name": "withdrawDepositTo",
      "outputs": [],
      "stateMutability": "nonpayable",
      "type": "function"
    },
    {
      "stateMutability": "payable",
      "type": "receive"
    }
  ],
  "bytecode": "0x60c0604052306080523480156200001557600080fd5b50604051620035f1380380620035f1833981016040819052620000389162000118565b6001600160a01b03811660a0526200004f62000056565b506200014a565b600054610100900460ff1615620000c35760405162461bcd60e51b815260206004820152602760248201527f496e697469616c697a61626c653a20636f6e747261637420697320696e697469604482015266616c697a696e6760c81b606482015260840160405180910390fd5b60005460ff908116101562000116576000805460ff191660ff9081179091556040519081527f7f26b83ff96e1f2b6a682f133852f6798a09c465da95921460cefb38474024989060200160405180910390a15b565b6000602082840312156200012b57600080fd5b81516001600160a01b03811681146200014357600080fd5b9392505050565b60805160a051613434620001bd6000396000818161043101528181610b3101528181610bd801528181611194015281816113e50152818161164a01528181611a0a0152611c3801526000818161091b015281816109cb01528181610c9c01528181610d4c0152610e9101526134346000f3fe60806040526004361061018e5760003560e01c806389e5900a116100d6578063be903e451161007f578063c4d66de811610059578063c4d66de814610512578063d087d28814610532578063f23a6e611461054757600080fd5b8063be903e45146104bd578063c188f113146104dd578063c399ec88146104fd57600080fd5b8063b0d691fe116100b0578063b0d691fe14610422578063b61d27f614610455578063bc197c811461047557600080fd5b806389e5900a1461036a5780638da5cb5b146103ad578063aa4a87111461040557600080fd5b80633659cfe6116101385780634d44560d116101125780634d44560d146103225780634f1ef2861461034257806352d1902d1461035557600080fd5b80633659cfe6146102cc5780633a871cdd146102ec5780634a58db191461031a57600080fd5b806312dc8ca01161016957806312dc8ca014610216578063150b7a021461023657806318dfb3c7146102ac57600080fd5b806223de291461019a57806301ffc9a7146101c15780630910a1f2146101f657600080fd5b3661019557005b600080fd5b3480156101a657600080fd5b506101bf6101b5366004612abf565b5050505050505050565b005b3480156101cd57600080fd5b506101e16101dc366004612b70565b61058d565b60405190151581526020015b60405180910390f35b34801561020257600080fd5b506101bf610211366004612bb2565b610672565b34801561022257600080fd5b506101bf610231366004612bde565b610688565b34801561024257600080fd5b5061027b610251366004612c26565b7f150b7a020000000000000000000000000000000000000000000000000000000095945050505050565b6040517fffffffff0000000000000000000000000000000000000000000000000000000090911681526020016101ed565b3480156102b857600080fd5b506101bf6102c7366004612cde565b6107e0565b3480156102d857600080fd5b506101bf6102e7366004612d4a565b610904565b3480156102f857600080fd5b5061030c610307366004612d67565b610b09565b6040519081526020016101ed565b6101bf610b2f565b34801561032e57600080fd5b506101bf61033d366004612bb2565b610bce565b6101bf610350366004612dea565b610c85565b34801561036157600080fd5b5061030c610e77565b34801561037657600080fd5b5061030c610385366004612d4a565b73ffffffffffffffffffffffffffffffffffffffff1660009081526003602052604090205490565b3480156103b957600080fd5b506000546103e09062010000900473ffffffffffffffffffffffffffffffffffffffff1681565b60405173ffffffffffffffffffffffffffffffffffffffff90911681526020016101ed565b34801561041157600080fd5b5060605b6040516101ed9190612ecc565b34801561042e57600080fd5b507f00000000000000000000000000000000000000000000000000000000000000006103e0565b34801561046157600080fd5b506101bf610470366004612f5f565b610f63565b34801561048157600080fd5b5061027b610490366004612faf565b7fbc197c810000000000000000000000000000000000000000000000000000000098975050505050505050565b3480156104c957600080fd5b506104156104d8366004612d4a565b610fb2565b3480156104e957600080fd5b506101bf6104f8366004612bb2565b61109d565b34801561050957600080fd5b5061030c61114e565b34801561051e57600080fd5b506101bf61052d366004612d4a565b611205565b34801561053e57600080fd5b5061030c611398565b34801561055357600080fd5b5061027b61056236600461304d565b7ff23a6e61000000000000000000000000000000000000000000000000000000009695505050505050565b60007fffffffff0000000000000000000000000000000000000000000000000000000082167f150b7a0200000000000000000000000000000000000000000000000000000000148061062057507fffffffff0000000000000000000000000000000000000000000000000000000082167f4e2312e000000000000000000000000000000000000000000000000000000000145b8061066c57507fffffffff0000000000000000000000000000000000000000000000000000000082167f01ffc9a700000000000000000000000000000000000000000000000000000000145b92915050565b61067a611414565b61068482826114a7565b5050565b60006040518060c001604052808673ffffffffffffffffffffffffffffffffffffffff1681526020018581526020018473ffffffffffffffffffffffffffffffffffffffff16815260200160011515815260200142815260200183426106ee91906130f8565b905273ffffffffffffffffffffffffffffffffffffffff958616600090815260026020818152604080842080546001808201835591865294839020865160059096020180547fffffffffffffffffffffffff000000000000000000000000000000000000000016958c16959095178555918501519184019190915583015190820180546060850151929099167fffffffffffffffffffffff000000000000000000000000000000000000000000909916989098177401000000000000000000000000000000000000000091151591909102179096556080810151600387015560a0015160049095019490945550505050565b6107e8611632565b828114610856576040517f08c379a000000000000000000000000000000000000000000000000000000000815260206004820152601360248201527f77726f6e67206172726179206c656e677468730000000000000000000000000060448201526064015b60405180910390fd5b60005b838110156108fd576108eb85858381811061087657610876613110565b905060200201602081019061088b9190612d4a565b600085858581811061089f5761089f613110565b90506020028101906108b1919061313f565b8080601f0160208091040260200160405190810160405280939291908181526020018383808284376000920191909152506116f992505050565b806108f5816131a4565b915050610859565b5050505050565b73ffffffffffffffffffffffffffffffffffffffff7f00000000000000000000000000000000000000000000000000000000000000001630036109c9576040517f08c379a000000000000000000000000000000000000000000000000000000000815260206004820152602c60248201527f46756e6374696f6e206d7573742062652063616c6c6564207468726f7567682060448201527f64656c656761746563616c6c0000000000000000000000000000000000000000606482015260840161084d565b7f000000000000000000000000000000000000000000000000000000000000000073ffffffffffffffffffffffffffffffffffffffff16610a3e7f360894a13ba1a3210667c828492db98dca3e2076cc3735a920a3ca505d382bbc5473ffffffffffffffffffffffffffffffffffffffff1690565b73ffffffffffffffffffffffffffffffffffffffff1614610ae1576040517f08c379a000000000000000000000000000000000000000000000000000000000815260206004820152602c60248201527f46756e6374696f6e206d7573742062652063616c6c6564207468726f7567682060448201527f6163746976652070726f78790000000000000000000000000000000000000000606482015260840161084d565b610aea816117e6565b60408051600080825260208201909252610b06918391906117ee565b50565b6000610b136119f2565b610b1d8484611a91565b9050610b2882611b77565b9392505050565b7f00000000000000000000000000000000000000000000000000000000000000006040517fb760faf900000000000000000000000000000000000000000000000000000000815230600482015273ffffffffffffffffffffffffffffffffffffffff919091169063b760faf99034906024016000604051808303818588803b158015610bba57600080fd5b505af11580156108fd573d6000803e3d6000fd5b610bd6611414565b7f00000000000000000000000000000000000000000000000000000000000000006040517f205c287800000000000000000000000000000000000000000000000000000000815273ffffffffffffffffffffffffffffffffffffffff848116600483015260248201849052919091169063205c287890604401600060405180830381600087803b158015610c6957600080fd5b505af1158015610c7d573d6000803e3d6000fd5b505050505050565b73ffffffffffffffffffffffffffffffffffffffff7f0000000000000000000000000000000000000000000000000000000000000000163003610d4a576040517f08c379a000000000000000000000000000000000000000000000000000000000815260206004820152602c60248201527f46756e6374696f6e206d7573742062652063616c6c6564207468726f7567682060448201527f64656c656761746563616c6c0000000000000000000000000000000000000000606482015260840161084d565b7f000000000000000000000000000000000000000000000000000000000000000073ffffffffffffffffffffffffffffffffffffffff16610dbf7f360894a13ba1a3210667c828492db98dca3e2076cc3735a920a3ca505d382bbc5473ffffffffffffffffffffffffffffffffffffffff1690565b73ffffffffffffffffffffffffffffffffffffffff1614610e62576040517f08c379a000000000000000000000000000000000000000000000000000000000815260206004820152602c60248201527f46756e6374696f6e206d7573742062652063616c6c6564207468726f7567682060448201527f6163746976652070726f78790000000000000000000000000000000000000000606482015260840161084d565b610e6b826117e6565b610684828260016117ee565b60003073ffffffffffffffffffffffffffffffffffffffff7f00000000000000000000000000000000000000000000000000000000000000001614610f3e576040517f08c379a000000000000000000000000000000000000000000000000000000000815260206004820152603860248201527f555550535570677261646561626c653a206d757374206e6f742062652063616c60448201527f6c6564207468726f7567682064656c656761746563616c6c0000000000000000606482015260840161084d565b507f360894a13ba1a3210667c828492db98dca3e2076cc3735a920a3ca505d382bbc90565b610f6b611632565b610fac848484848080601f0160208091040260200160405190810160405280939291908181526020018383808284376000920191909152506116f992505050565b50505050565b73ffffffffffffffffffffffffffffffffffffffff81166000908152600260209081526040808320805482518185028101850190935280835260609492939192909184015b828210156110925760008481526020908190206040805160c08101825260058602909201805473ffffffffffffffffffffffffffffffffffffffff90811684526001808301548587015260028301549182169385019390935274010000000000000000000000000000000000000000900460ff1615156060840152600381015460808401526004015460a08301529083529092019101610ff7565b505050509050919050565b73ffffffffffffffffffffffffffffffffffffffff821660009081526002602052604090208054829081106110d4576110d4613110565b906000526020600020906005020160040154421161067a576040517f08c379a000000000000000000000000000000000000000000000000000000000815260206004820152601960248201527f4c6f616e206475726174696f6e206e6f74207265616368656400000000000000604482015260640161084d565b6040517f70a0823100000000000000000000000000000000000000000000000000000000815230600482015260009073ffffffffffffffffffffffffffffffffffffffff7f000000000000000000000000000000000000000000000000000000000000000016906370a08231906024015b602060405180830381865afa1580156111dc573d6000803e3d6000fd5b505050506040513d601f19601f8201168201806040525081019061120091906131dc565b905090565b600054610100900460ff16158080156112255750600054600160ff909116105b8061123f5750303b15801561123f575060005460ff166001145b6112cb576040517f08c379a000000000000000000000000000000000000000000000000000000000815260206004820152602e60248201527f496e697469616c697a61626c653a20636f6e747261637420697320616c72656160448201527f647920696e697469616c697a6564000000000000000000000000000000000000606482015260840161084d565b600080547fffffffffffffffffffffffffffffffffffffffffffffffffffffffffffffff00166001179055801561132957600080547fffffffffffffffffffffffffffffffffffffffffffffffffffffffffffff00ff166101001790555b61133282611be2565b801561068457600080547fffffffffffffffffffffffffffffffffffffffffffffffffffffffffffff00ff169055604051600181527f7f26b83ff96e1f2b6a682f133852f6798a09c465da95921460cefb38474024989060200160405180910390a15050565b6040517f35567e1a0000000000000000000000000000000000000000000000000000000081523060048201526000602482018190529073ffffffffffffffffffffffffffffffffffffffff7f000000000000000000000000000000000000000000000000000000000000000016906335567e1a906044016111bf565b60005462010000900473ffffffffffffffffffffffffffffffffffffffff1633148061143f57503330145b6114a5576040517f08c379a000000000000000000000000000000000000000000000000000000000815260206004820152600a60248201527f6f6e6c79206f776e657200000000000000000000000000000000000000000000604482015260640161084d565b565b73ffffffffffffffffffffffffffffffffffffffff821660009081526002602052604081208054839081106114de576114de613110565b6000918252602080832060059092029091015473ffffffffffffffffffffffffffffffffffffffff868116845260029092526040909220805491909216925082916342842e0e913091908690811061153857611538613110565b60009182526020808320600260059093020182015473ffffffffffffffffffffffffffffffffffffffff8a8116855292909152604090922080549190921691908790811061158857611588613110565b60009182526020909120600160059092020101546040517fffffffff0000000000000000000000000000000000000000000000000000000060e086901b16815273ffffffffffffffffffffffffffffffffffffffff93841660048201529290911660248301526044820152606401600060405180830381600087803b15801561161057600080fd5b505af1158015611624573d6000803e3d6000fd5b50505050610fac8383611c81565b3373ffffffffffffffffffffffffffffffffffffffff7f0000000000000000000000000000000000000000000000000000000000000000161480611693575060005462010000900473ffffffffffffffffffffffffffffffffffffffff1633145b6114a5576040517f08c379a000000000000000000000000000000000000000000000000000000000815260206004820181905260248201527f6163636f756e743a206e6f74204f776e6572206f7220456e747279506f696e74604482015260640161084d565b6117038382611ee3565b611769576040517f08c379a000000000000000000000000000000000000000000000000000000000815260206004820152601660248201527f556e617574686f72697a6564206f7065726174696f6e00000000000000000000604482015260640161084d565b6000808473ffffffffffffffffffffffffffffffffffffffff1684846040516117929190613221565b60006040518083038185875af1925050503d80600081146117cf576040519150601f19603f3d011682016040523d82523d6000602084013e6117d4565b606091505b5091509150816108fd57805160208201fd5b610b06611414565b7f4910fdfa16fed3260ed0e7147f7cc6da11a60208b5b9406d12a635614ffd91435460ff1615611826576118218361226f565b505050565b8273ffffffffffffffffffffffffffffffffffffffff166352d1902d6040518163ffffffff1660e01b8152600401602060405180830381865afa9250505080156118ab575060408051601f3d9081017fffffffffffffffffffffffffffffffffffffffffffffffffffffffffffffffe01682019092526118a8918101906131dc565b60015b611937576040517f08c379a000000000000000000000000000000000000000000000000000000000815260206004820152602e60248201527f45524331393637557067726164653a206e657720696d706c656d656e7461746960448201527f6f6e206973206e6f742055555053000000000000000000000000000000000000606482015260840161084d565b7f360894a13ba1a3210667c828492db98dca3e2076cc3735a920a3ca505d382bbc81146119e6576040517f08c379a000000000000000000000000000000000000000000000000000000000815260206004820152602960248201527f45524331393637557067726164653a20756e737570706f727465642070726f7860448201527f6961626c65555549440000000000000000000000000000000000000000000000606482015260840161084d565b50611821838383612379565b3373ffffffffffffffffffffffffffffffffffffffff7f000000000000000000000000000000000000000000000000000000000000000016146114a5576040517f08c379a000000000000000000000000000000000000000000000000000000000815260206004820152601c60248201527f6163636f756e743a206e6f742066726f6d20456e747279506f696e7400000000604482015260640161084d565b600080611aeb836040517f19457468657265756d205369676e6564204d6573736167653a0a3332000000006020820152603c8101829052600090605c01604051602081830303815290604052805190602001209050919050565b9050611b3b611afe61014086018661313f565b8080601f016020809104026020016040519081016040528093929190818152602001838380828437600092019190915250859392505061239e9050565b60005462010000900473ffffffffffffffffffffffffffffffffffffffff908116911614611b6d57600191505061066c565b5060009392505050565b8015610b065760405160009033907fffffffffffffffffffffffffffffffffffffffffffffffffffffffffffffffff90849084818181858888f193505050503d80600081146108fd576040519150601f19603f3d011682016040523d82523d6000602084013e6108fd565b600080547fffffffffffffffffffff0000000000000000000000000000000000000000ffff166201000073ffffffffffffffffffffffffffffffffffffffff8481168202929092178084556040519190048216927f0000000000000000000000000000000000000000000000000000000000000000909216917f47e55c76e7a6f1fd8996a1da8008c1ea29699cca35e7bcd057f2dec313b6e5de91a350565b73ffffffffffffffffffffffffffffffffffffffff82166000908152600260205260408120548190611cb59060019061323d565b73ffffffffffffffffffffffffffffffffffffffff8516600090815260026020526040902080549192509082908110611cf057611cf0613110565b9060005260206000209060050201600260008673ffffffffffffffffffffffffffffffffffffffff1673ffffffffffffffffffffffffffffffffffffffff1681526020019081526020016000208481548110611d4e57611d4e613110565b60009182526020808320845460059093020180547fffffffffffffffffffffffff000000000000000000000000000000000000000090811673ffffffffffffffffffffffffffffffffffffffff948516178255600180870154908301556002808701805482850180549485169188169182178155915460ff7401000000000000000000000000000000000000000091829004161515027fffffffffffffffffffffff000000000000000000000000000000000000000000909416179290921790915560038087015490830155600495860154959091019490945590871682529190915260409020805480611e4457611e44613254565b60008281526020812060057fffffffffffffffffffffffffffffffffffffffffffffffffffffffffffffffff9093019283020180547fffffffffffffffffffffffff0000000000000000000000000000000000000000168155600181018290556002810180547fffffffffffffffffffffff00000000000000000000000000000000000000000016905560038101829055600401559055905092915050565b6000600482511015611ef75750600161066c565b6000611f04836020015190565b60408051808201909152601f81527f736574417070726f76616c466f72416c6c28616464726573732c626f6f6c290060209091015290507f5dd34b9b000000000000000000000000000000000000000000000000000000007fffffffff0000000000000000000000000000000000000000000000000000000082160161205c5773ffffffffffffffffffffffffffffffffffffffff841660009081526002602052604090205415611fb957600091505061066c565b60448301518015611fff5773ffffffffffffffffffffffffffffffffffffffff85166000908152600360205260408120805491611ff5836131a4565b9190505550612051565b60248401518161204f5761201386826123c2565b1561204f5773ffffffffffffffffffffffffffffffffffffffff8616600090815260036020526040812080549161204983613283565b91905055505b505b60019250505061066c565b60405180606001604052806025815260200161335b60259139805190602001207bffffffffffffffffffffffffffffffffffffffffffffffffffffffff1916817bffffffffffffffffffffffffffffffffffffffffffffffffffffffff19161480612123575060405180606001604052806029815260200161338060299139805190602001207bffffffffffffffffffffffffffffffffffffffffffffffffffffffff1916817bffffffffffffffffffffffffffffffffffffffffffffffffffffffff1916145b8061218a57506040518060600160405280602f81526020016133d0602f9139805190602001207bffffffffffffffffffffffffffffffffffffffffffffffffffffffff1916817bffffffffffffffffffffffffffffffffffffffffffffffffffffffff1916145b156121ce57602483015160648401513073ffffffffffffffffffffffffffffffffffffffff8316036121cb576121c08682612465565b15935050505061066c565b50505b60408051808201909152601881527f617070726f766528616464726573732c75696e743235362900000000000000006020909101527ff6a1584d000000000000000000000000000000000000000000000000000000007fffffffff0000000000000000000000000000000000000000000000000000000082160161226557604483015161225b8582612465565b159250505061066c565b5060019392505050565b73ffffffffffffffffffffffffffffffffffffffff81163b612313576040517f08c379a000000000000000000000000000000000000000000000000000000000815260206004820152602d60248201527f455243313936373a206e657720696d706c656d656e746174696f6e206973206e60448201527f6f74206120636f6e747261637400000000000000000000000000000000000000606482015260840161084d565b7f360894a13ba1a3210667c828492db98dca3e2076cc3735a920a3ca505d382bbc80547fffffffffffffffffffffffff00000000000000000000000000000000000000001673ffffffffffffffffffffffffffffffffffffffff92909216919091179055565b6123828361259e565b60008251118061238f5750805b1561182157610fac83836125eb565b60008060006123ad8585612610565b915091506123ba81612655565b509392505050565b6040517fe985e9c500000000000000000000000000000000000000000000000000000000815230600482015273ffffffffffffffffffffffffffffffffffffffff8281166024830152600091849182169063e985e9c590604401602060405180830381865afa158015612439573d6000803e3d6000fd5b505050506040513d601f19601f8201168201806040525081019061245d91906132b8565b949350505050565b73ffffffffffffffffffffffffffffffffffffffff8216600090815260026020908152604080832080548251818502810185019093528083528493849084015b828210156125405760008481526020908190206040805160c08101825260058602909201805473ffffffffffffffffffffffffffffffffffffffff90811684526001808301548587015260028301549182169385019390935274010000000000000000000000000000000000000000900460ff1615156060840152600381015460808401526004015460a083015290835290920191016124a5565b50505050905060005b8151811015612593578382828151811061256557612565613110565b602002602001015160200151036125815760019250505061066c565b8061258b816131a4565b915050612549565b506000949350505050565b6125a78161226f565b60405173ffffffffffffffffffffffffffffffffffffffff8216907fbc7cd75a20ee27fd9adebab32041f755214dbc6bffa90cc0225b39da2e5c2d3b90600090a250565b6060610b2883836040518060600160405280602781526020016133a960279139612808565b60008082516041036126465760208301516040840151606085015160001a61263a8782858561288d565b9450945050505061264e565b506000905060025b9250929050565b6000816004811115612669576126696132da565b036126715750565b6001816004811115612685576126856132da565b036126ec576040517f08c379a000000000000000000000000000000000000000000000000000000000815260206004820152601860248201527f45434453413a20696e76616c6964207369676e61747572650000000000000000604482015260640161084d565b6002816004811115612700576127006132da565b03612767576040517f08c379a000000000000000000000000000000000000000000000000000000000815260206004820152601f60248201527f45434453413a20696e76616c6964207369676e6174757265206c656e67746800604482015260640161084d565b600381600481111561277b5761277b6132da565b03610b06576040517f08c379a000000000000000000000000000000000000000000000000000000000815260206004820152602260248201527f45434453413a20696e76616c6964207369676e6174757265202773272076616c60448201527f7565000000000000000000000000000000000000000000000000000000000000606482015260840161084d565b60606000808573ffffffffffffffffffffffffffffffffffffffff16856040516128329190613221565b600060405180830381855af49150503d806000811461286d576040519150601f19603f3d011682016040523d82523d6000602084013e612872565b606091505b50915091506128838683838761297c565b9695505050505050565b6000807f7fffffffffffffffffffffffffffffff5d576e7357a4501ddfe92f46681b20a08311156128c45750600090506003612973565b6040805160008082526020820180845289905260ff881692820192909252606081018690526080810185905260019060a0016020604051602081039080840390855afa158015612918573d6000803e3d6000fd5b50506040517fffffffffffffffffffffffffffffffffffffffffffffffffffffffffffffffe0015191505073ffffffffffffffffffffffffffffffffffffffff811661296c57600060019250925050612973565b9150600090505b94509492505050565b60608315612a12578251600003612a0b5773ffffffffffffffffffffffffffffffffffffffff85163b612a0b576040517f08c379a000000000000000000000000000000000000000000000000000000000815260206004820152601d60248201527f416464726573733a2063616c6c20746f206e6f6e2d636f6e7472616374000000604482015260640161084d565b508161245d565b61245d8383815115612a275781518083602001fd5b806040517f08c379a000000000000000000000000000000000000000000000000000000000815260040161084d9190613309565b73ffffffffffffffffffffffffffffffffffffffff81168114610b0657600080fd5b60008083601f840112612a8f57600080fd5b50813567ffffffffffffffff811115612aa757600080fd5b60208301915083602082850101111561264e57600080fd5b60008060008060008060008060c0898b031215612adb57600080fd5b8835612ae681612a5b565b97506020890135612af681612a5b565b96506040890135612b0681612a5b565b955060608901359450608089013567ffffffffffffffff80821115612b2a57600080fd5b612b368c838d01612a7d565b909650945060a08b0135915080821115612b4f57600080fd5b50612b5c8b828c01612a7d565b999c989b5096995094979396929594505050565b600060208284031215612b8257600080fd5b81357fffffffff0000000000000000000000000000000000000000000000000000000081168114610b2857600080fd5b60008060408385031215612bc557600080fd5b8235612bd081612a5b565b946020939093013593505050565b60008060008060808587031215612bf457600080fd5b8435612bff81612a5b565b9350602085013592506040850135612c1681612a5b565b9396929550929360600135925050565b600080600080600060808688031215612c3e57600080fd5b8535612c4981612a5b565b94506020860135612c5981612a5b565b935060408601359250606086013567ffffffffffffffff811115612c7c57600080fd5b612c8888828901612a7d565b969995985093965092949392505050565b60008083601f840112612cab57600080fd5b50813567ffffffffffffffff811115612cc357600080fd5b6020830191508360208260051b850101111561264e57600080fd5b60008060008060408587031215612cf457600080fd5b843567ffffffffffffffff80821115612d0c57600080fd5b612d1888838901612c99565b90965094506020870135915080821115612d3157600080fd5b50612d3e87828801612c99565b95989497509550505050565b600060208284031215612d5c57600080fd5b8135610b2881612a5b565b600080600060608486031215612d7c57600080fd5b833567ffffffffffffffff811115612d9357600080fd5b84016101608187031215612da657600080fd5b95602085013595506040909401359392505050565b7f4e487b7100000000000000000000000000000000000000000000000000000000600052604160045260246000fd5b60008060408385031215612dfd57600080fd5b8235612e0881612a5b565b9150602083013567ffffffffffffffff80821115612e2557600080fd5b818501915085601f830112612e3957600080fd5b813581811115612e4b57612e4b612dbb565b604051601f82017fffffffffffffffffffffffffffffffffffffffffffffffffffffffffffffffe0908116603f01168101908382118183101715612e9157612e91612dbb565b81604052828152886020848701011115612eaa57600080fd5b8260208601602083013760006020848301015280955050505050509250929050565b602080825282518282018190526000919060409081850190868401855b82811015612f52578151805173ffffffffffffffffffffffffffffffffffffffff908116865287820151888701528682015116868601526060808201511515908601526080808201519086015260a0908101519085015260c09093019290850190600101612ee9565b5091979650505050505050565b60008060008060608587031215612f7557600080fd5b8435612f8081612a5b565b935060208501359250604085013567ffffffffffffffff811115612fa357600080fd5b612d3e87828801612a7d565b60008060008060008060008060a0898b031215612fcb57600080fd5b8835612fd681612a5b565b97506020890135612fe681612a5b565b9650604089013567ffffffffffffffff8082111561300357600080fd5b61300f8c838d01612c99565b909850965060608b013591508082111561302857600080fd5b6130348c838d01612c99565b909650945060808b0135915080821115612b4f57600080fd5b60008060008060008060a0878903121561306657600080fd5b863561307181612a5b565b9550602087013561308181612a5b565b94506040870135935060608701359250608087013567ffffffffffffffff8111156130ab57600080fd5b6130b789828a01612a7d565b979a9699509497509295939492505050565b7f4e487b7100000000000000000000000000000000000000000000000000000000600052601160045260246000fd5b6000821982111561310b5761310b6130c9565b500190565b7f4e487b7100000000000000000000000000000000000000000000000000000000600052603260045260246000fd5b60008083357fffffffffffffffffffffffffffffffffffffffffffffffffffffffffffffffe184360301811261317457600080fd5b83018035915067ffffffffffffffff82111561318f57600080fd5b60200191503681900382131561264e57600080fd5b60007fffffffffffffffffffffffffffffffffffffffffffffffffffffffffffffffff82036131d5576131d56130c9565b5060010190565b6000602082840312156131ee57600080fd5b5051919050565b60005b838110156132105781810151838201526020016131f8565b83811115610fac5750506000910152565b600082516132338184602087016131f5565b9190910192915050565b60008282101561324f5761324f6130c9565b500390565b7f4e487b7100000000000000000000000000000000000000000000000000000000600052603160045260246000fd5b600081613292576132926130c9565b507fffffffffffffffffffffffffffffffffffffffffffffffffffffffffffffffff0190565b6000602082840312156132ca57600080fd5b81518015158114610b2857600080fd5b7f4e487b7100000000000000000000000000000000000000000000000000000000600052602160045260246000fd5b60208152600082518060208401526133288160408501602087016131f5565b601f017fffffffffffffffffffffffffffffffffffffffffffffffffffffffffffffffe016919091016040019291505056fe7472616e7366657246726f6d28616464726573732c616464726573732c75696e7432353629736166655472616e7366657246726f6d28616464726573732c616464726573732c75696e7432353629416464726573733a206c6f772d6c6576656c2064656c65676174652063616c6c206661696c6564736166655472616e7366657246726f6d28616464726573732c616464726573732c75696e743235362c627974657329a264697066735822122003ce51e3b51446c4b91694d2ee8e525054535950c0efb4724a107f9fbba7974a64736f6c634300080f0033",
  "linkReferences": {},
  "deployedLinkReferences": {}
}